{
  "address": "0x553952fd4267A6BAb54903E11F46804A400AB326",
  "_format": "hh-sol-artifact-1",
  "contractName": "UniversityDegrees",
  "sourceName": "contracts/UniversityDegrees.sol",
  "abi": [
    {
      "anonymous": false,
      "inputs": [
        {
          "indexed": false,
          "internalType": "string",
          "name": "tokenURI",
          "type": "string"
        },
        {
          "indexed": true,
          "internalType": "uint256",
          "name": "degreeId",
          "type": "uint256"
        },
        {
          "indexed": false,
          "internalType": "string",
          "name": "name",
          "type": "string"
        },
        {
          "indexed": true,
          "internalType": "address",
          "name": "studentAddress",
          "type": "address"
        },
        {
          "indexed": false,
          "internalType": "string",
          "name": "ERP",
          "type": "string"
        },
        {
          "indexed": false,
          "internalType": "bool",
          "name": "isVerified",
          "type": "bool"
        }
      ],
      "name": "DegreeAdded",
      "type": "event"
    },
    {
      "anonymous": false,
      "inputs": [
        {
          "indexed": true,
          "internalType": "uint256",
          "name": "degreeId",
          "type": "uint256"
        }
      ],
      "name": "DegreeVerified",
      "type": "event"
    },
    {
      "inputs": [
        {
          "internalType": "string",
          "name": "_name",
          "type": "string"
        },
        {
          "internalType": "string",
          "name": "_ERP",
          "type": "string"
        },
        {
          "internalType": "string",
          "name": "_tokenURI",
          "type": "string"
        }
      ],
      "name": "addDegree",
      "outputs": [],
      "stateMutability": "nonpayable",
      "type": "function"
    },
    {
      "inputs": [
        {
          "internalType": "uint256",
          "name": "",
          "type": "uint256"
        }
      ],
      "name": "degrees",
      "outputs": [
        {
          "internalType": "string",
          "name": "tokenURI",
          "type": "string"
        },
        {
          "internalType": "uint256",
          "name": "degreeId",
          "type": "uint256"
        },
        {
          "internalType": "string",
          "name": "name",
          "type": "string"
        },
        {
          "internalType": "bool",
          "name": "isVerified",
          "type": "bool"
        },
        {
          "internalType": "string",
          "name": "ERP",
          "type": "string"
        }
      ],
      "stateMutability": "view",
      "type": "function"
    },
    {
      "inputs": [],
      "name": "getAllDegrees",
      "outputs": [
        {
          "components": [
            {
              "internalType": "string",
              "name": "tokenURI",
              "type": "string"
            },
            {
              "internalType": "uint256",
              "name": "degreeId",
              "type": "uint256"
            },
            {
              "internalType": "string",
              "name": "name",
              "type": "string"
            },
            {
              "internalType": "bool",
              "name": "isVerified",
              "type": "bool"
            },
            {
              "internalType": "string",
              "name": "ERP",
              "type": "string"
            }
          ],
          "internalType": "struct UniversityDegrees.Degree[]",
          "name": "",
          "type": "tuple[]"
        }
      ],
      "stateMutability": "view",
      "type": "function"
    },
    {
      "inputs": [
        {
          "internalType": "string",
          "name": "_ERP",
          "type": "string"
        }
      ],
      "name": "getDegreeByERP",
      "outputs": [
        {
          "components": [
            {
              "internalType": "string",
              "name": "tokenURI",
              "type": "string"
            },
            {
              "internalType": "uint256",
              "name": "degreeId",
              "type": "uint256"
            },
            {
              "internalType": "string",
              "name": "name",
              "type": "string"
            },
            {
              "internalType": "bool",
              "name": "isVerified",
              "type": "bool"
            },
            {
              "internalType": "string",
              "name": "ERP",
              "type": "string"
            }
          ],
          "internalType": "struct UniversityDegrees.Degree",
          "name": "",
          "type": "tuple"
        }
      ],
      "stateMutability": "view",
      "type": "function"
    },
    {
      "inputs": [],
      "name": "totalDegrees",
      "outputs": [
        {
          "internalType": "uint256",
          "name": "",
          "type": "uint256"
        }
      ],
      "stateMutability": "view",
      "type": "function"
    }
  ],
  "bytecode": "0x6080604052655af3107a400060015534801561001a57600080fd5b5061155b8061002a6000396000f3fe608060405234801561001057600080fd5b50600436106100575760003560e01c806317e332521461005c57806335eee2fb1461008c57806381f1c3bc146100aa578063a9a925ea146100de578063d6db91a4146100fa575b600080fd5b61007660048036038101906100719190610af8565b610118565b6040516100839190610c78565b60405180910390f35b6100946103bd565b6040516100a19190610ca9565b60405180910390f35b6100c460048036038101906100bf9190610cf0565b6103c3565b6040516100d5959493929190610d76565b60405180910390f35b6100f860048036038101906100f39190610dde565b61059e565b005b6101026106c3565b60405161010f9190610fcb565b60405180910390f35b61012061096d565b6000600190505b600354811161037c5782805190602001206002600083815260200190815260200160002060040160405161015b91906110f0565b60405180910390200361036957600260008281526020019081526020016000206040518060a00160405290816000820180546101969061101c565b80601f01602080910402602001604051908101604052809291908181526020018280546101c29061101c565b801561020f5780601f106101e45761010080835404028352916020019161020f565b820191906000526020600020905b8154815290600101906020018083116101f257829003601f168201915b50505050508152602001600182015481526020016002820180546102329061101c565b80601f016020809104026020016040519081016040528092919081815260200182805461025e9061101c565b80156102ab5780601f10610280576101008083540402835291602001916102ab565b820191906000526020600020905b81548152906001019060200180831161028e57829003601f168201915b505050505081526020016003820160009054906101000a900460ff161515151581526020016004820180546102df9061101c565b80601f016020809104026020016040519081016040528092919081815260200182805461030b9061101c565b80156103585780601f1061032d57610100808354040283529160200191610358565b820191906000526020600020905b81548152906001019060200180831161033b57829003601f168201915b5050505050815250509150506103b8565b808061037490611136565b915050610127565b506040517f08c379a00000000000000000000000000000000000000000000000000000000081526004016103af906111ca565b60405180910390fd5b919050565b60035481565b60026020528060005260406000206000915090508060000180546103e69061101c565b80601f01602080910402602001604051908101604052809291908181526020018280546104129061101c565b801561045f5780601f106104345761010080835404028352916020019161045f565b820191906000526020600020905b81548152906001019060200180831161044257829003601f168201915b50505050509080600101549080600201805461047a9061101c565b80601f01602080910402602001604051908101604052809291908181526020018280546104a69061101c565b80156104f35780601f106104c8576101008083540402835291602001916104f3565b820191906000526020600020905b8154815290600101906020018083116104d657829003601f168201915b5050505050908060030160009054906101000a900460ff169080600401805461051b9061101c565b80601f01602080910402602001604051908101604052809291908181526020018280546105479061101c565b80156105945780601f1061056957610100808354040283529160200191610594565b820191906000526020600020905b81548152906001019060200180831161057757829003601f168201915b5050505050905085565b600360008154809291906105b190611136565b91905055506040518060a00160405280828152602001600354815260200184815260200160011515815260200183815250600260006003548152602001908152602001600020600082015181600001908161060c9190611396565b5060208201518160010155604082015181600201908161062c9190611396565b5060608201518160030160006101000a81548160ff02191690831515021790555060808201518160040190816106629190611396565b509050503373ffffffffffffffffffffffffffffffffffffffff166003547f3d187978da07f8f5e916d6e42e69d0767bb1eeffe11c8ca33de3e93ecbc10f7683868660016040516106b69493929190611468565b60405180910390a3505050565b6060600060035467ffffffffffffffff8111156106e3576106e26109cd565b5b60405190808252806020026020018201604052801561071c57816020015b61070961096d565b8152602001906001900390816107015790505b5090506000600190505b600354811161096557600260008281526020019081526020016000206040518060a001604052908160008201805461075d9061101c565b80601f01602080910402602001604051908101604052809291908181526020018280546107899061101c565b80156107d65780601f106107ab576101008083540402835291602001916107d6565b820191906000526020600020905b8154815290600101906020018083116107b957829003601f168201915b50505050508152602001600182015481526020016002820180546107f99061101c565b80601f01602080910402602001604051908101604052809291908181526020018280546108259061101c565b80156108725780601f1061084757610100808354040283529160200191610872565b820191906000526020600020905b81548152906001019060200180831161085557829003601f168201915b505050505081526020016003820160009054906101000a900460ff161515151581526020016004820180546108a69061101c565b80601f01602080910402602001604051908101604052809291908181526020018280546108d29061101c565b801561091f5780601f106108f45761010080835404028352916020019161091f565b820191906000526020600020905b81548152906001019060200180831161090257829003601f168201915b5050505050815250508260018361093691906114c2565b81518110610947576109466114f6565b5b6020026020010181905250808061095d90611136565b915050610726565b508091505090565b6040518060a00160405280606081526020016000815260200160608152602001600015158152602001606081525090565b6000604051905090565b600080fd5b600080fd5b600080fd5b600080fd5b6000601f19601f8301169050919050565b7f4e487b7100000000000000000000000000000000000000000000000000000000600052604160045260246000fd5b610a05826109bc565b810181811067ffffffffffffffff82111715610a2457610a236109cd565b5b80604052505050565b6000610a3761099e565b9050610a4382826109fc565b919050565b600067ffffffffffffffff821115610a6357610a626109cd565b5b610a6c826109bc565b9050602081019050919050565b82818337600083830152505050565b6000610a9b610a9684610a48565b610a2d565b905082815260208101848484011115610ab757610ab66109b7565b5b610ac2848285610a79565b509392505050565b600082601f830112610adf57610ade6109b2565b5b8135610aef848260208601610a88565b91505092915050565b600060208284031215610b0e57610b0d6109a8565b5b600082013567ffffffffffffffff811115610b2c57610b2b6109ad565b5b610b3884828501610aca565b91505092915050565b600081519050919050565b600082825260208201905092915050565b60005b83811015610b7b578082015181840152602081019050610b60565b60008484015250505050565b6000610b9282610b41565b610b9c8185610b4c565b9350610bac818560208601610b5d565b610bb5816109bc565b840191505092915050565b6000819050919050565b610bd381610bc0565b82525050565b60008115159050919050565b610bee81610bd9565b82525050565b600060a0830160008301518482036000860152610c118282610b87565b9150506020830151610c266020860182610bca565b5060408301518482036040860152610c3e8282610b87565b9150506060830151610c536060860182610be5565b5060808301518482036080860152610c6b8282610b87565b9150508091505092915050565b60006020820190508181036000830152610c928184610bf4565b905092915050565b610ca381610bc0565b82525050565b6000602082019050610cbe6000830184610c9a565b92915050565b610ccd81610bc0565b8114610cd857600080fd5b50565b600081359050610cea81610cc4565b92915050565b600060208284031215610d0657610d056109a8565b5b6000610d1484828501610cdb565b91505092915050565b600082825260208201905092915050565b6000610d3982610b41565b610d438185610d1d565b9350610d53818560208601610b5d565b610d5c816109bc565b840191505092915050565b610d7081610bd9565b82525050565b600060a0820190508181036000830152610d908188610d2e565b9050610d9f6020830187610c9a565b8181036040830152610db18186610d2e565b9050610dc06060830185610d67565b8181036080830152610dd28184610d2e565b90509695505050505050565b600080600060608486031215610df757610df66109a8565b5b600084013567ffffffffffffffff811115610e1557610e146109ad565b5b610e2186828701610aca565b935050602084013567ffffffffffffffff811115610e4257610e416109ad565b5b610e4e86828701610aca565b925050604084013567ffffffffffffffff811115610e6f57610e6e6109ad565b5b610e7b86828701610aca565b9150509250925092565b600081519050919050565b600082825260208201905092915050565b6000819050602082019050919050565b600060a0830160008301518482036000860152610ece8282610b87565b9150506020830151610ee36020860182610bca565b5060408301518482036040860152610efb8282610b87565b9150506060830151610f106060860182610be5565b5060808301518482036080860152610f288282610b87565b9150508091505092915050565b6000610f418383610eb1565b905092915050565b6000602082019050919050565b6000610f6182610e85565b610f6b8185610e90565b935083602082028501610f7d85610ea1565b8060005b85811015610fb95784840389528151610f9a8582610f35565b9450610fa583610f49565b925060208a01995050600181019050610f81565b50829750879550505050505092915050565b60006020820190508181036000830152610fe58184610f56565b905092915050565b7f4e487b7100000000000000000000000000000000000000000000000000000000600052602260045260246000fd5b6000600282049050600182168061103457607f821691505b60208210810361104757611046610fed565b5b50919050565b600081905092915050565b60008190508160005260206000209050919050565b6000815461107a8161101c565b611084818661104d565b9450600182166000811461109f57600181146110b4576110e7565b60ff19831686528115158202860193506110e7565b6110bd85611058565b60005b838110156110df578154818901526001820191506020810190506110c0565b838801955050505b50505092915050565b60006110fc828461106d565b915081905092915050565b7f4e487b7100000000000000000000000000000000000000000000000000000000600052601160045260246000fd5b600061114182610bc0565b91507fffffffffffffffffffffffffffffffffffffffffffffffffffffffffffffffff820361117357611172611107565b5b600182019050919050565b7f446567726565206e6f7420666f756e6400000000000000000000000000000000600082015250565b60006111b4601083610d1d565b91506111bf8261117e565b602082019050919050565b600060208201905081810360008301526111e3816111a7565b9050919050565b60008190508160005260206000209050919050565b60006020601f8301049050919050565b600082821b905092915050565b60006008830261124c7fffffffffffffffffffffffffffffffffffffffffffffffffffffffffffffffff8261120f565b611256868361120f565b95508019841693508086168417925050509392505050565b6000819050919050565b600061129361128e61128984610bc0565b61126e565b610bc0565b9050919050565b6000819050919050565b6112ad83611278565b6112c16112b98261129a565b84845461121c565b825550505050565b600090565b6112d66112c9565b6112e18184846112a4565b505050565b5b81811015611305576112fa6000826112ce565b6001810190506112e7565b5050565b601f82111561134a5761131b816111ea565b611324846111ff565b81016020851015611333578190505b61134761133f856111ff565b8301826112e6565b50505b505050565b600082821c905092915050565b600061136d6000198460080261134f565b1980831691505092915050565b6000611386838361135c565b9150826002028217905092915050565b61139f82610b41565b67ffffffffffffffff8111156113b8576113b76109cd565b5b6113c2825461101c565b6113cd828285611309565b600060209050601f83116001811461140057600084156113ee578287015190505b6113f8858261137a565b865550611460565b601f19841661140e866111ea565b60005b8281101561143657848901518255600182019150602085019450602081019050611411565b86831015611453578489015161144f601f89168261135c565b8355505b6001600288020188555050505b505050505050565b600060808201905081810360008301526114828187610d2e565b905081810360208301526114968186610d2e565b905081810360408301526114aa8185610d2e565b90506114b96060830184610d67565b95945050505050565b60006114cd82610bc0565b91506114d883610bc0565b92508282039050818111156114f0576114ef611107565b5b92915050565b7f4e487b7100000000000000000000000000000000000000000000000000000000600052603260045260246000fdfea2646970667358221220ce724039f8d79e16cbceba90d194f8247f288606ac62bf285a24fc5d360a0ec164736f6c63430008120033",
  "linkReferences": {},
  "deployedLinkReferences": {}
}