{
  "_format": "hh-sol-artifact-1",
  "contractName": "UniversityDegrees",
  "sourceName": "contracts/Degree.sol",
  "abi": [
    {
      "anonymous": false,
      "inputs": [
        {
          "indexed": true,
          "internalType": "uint256",
          "name": "degreeId",
          "type": "uint256"
        },
        {
          "indexed": false,
          "internalType": "string",
          "name": "name",
          "type": "string"
        },
        {
          "indexed": true,
          "internalType": "address",
          "name": "studentAddress",
          "type": "address"
        },
        {
          "indexed": false,
          "internalType": "string",
          "name": "ERP",
          "type": "string"
        },
        {
          "indexed": false,
          "internalType": "bool",
          "name": "isVerified",
          "type": "bool"
        }
      ],
      "name": "DegreeAdded",
      "type": "event"
    },
    {
      "anonymous": false,
      "inputs": [
        {
          "indexed": true,
          "internalType": "uint256",
          "name": "degreeId",
          "type": "uint256"
        }
      ],
      "name": "DegreeVerified",
      "type": "event"
    },
    {
      "inputs": [
        {
          "internalType": "string",
          "name": "_name",
          "type": "string"
        },
        {
          "internalType": "string",
          "name": "_ERP",
          "type": "string"
        }
      ],
      "name": "addDegree",
      "outputs": [],
      "stateMutability": "nonpayable",
      "type": "function"
    },
    {
      "inputs": [
        {
          "internalType": "uint256",
          "name": "",
          "type": "uint256"
        }
      ],
      "name": "degrees",
      "outputs": [
        {
          "internalType": "uint256",
          "name": "degreeId",
          "type": "uint256"
        },
        {
          "internalType": "string",
          "name": "name",
          "type": "string"
        },
        {
          "internalType": "bool",
          "name": "isVerified",
          "type": "bool"
        },
        {
          "internalType": "string",
          "name": "ERP",
          "type": "string"
        }
      ],
      "stateMutability": "view",
      "type": "function"
    },
    {
      "inputs": [],
      "name": "getAllDegrees",
      "outputs": [
        {
          "components": [
            {
              "internalType": "uint256",
              "name": "degreeId",
              "type": "uint256"
            },
            {
              "internalType": "string",
              "name": "name",
              "type": "string"
            },
            {
              "internalType": "bool",
              "name": "isVerified",
              "type": "bool"
            },
            {
              "internalType": "string",
              "name": "ERP",
              "type": "string"
            }
          ],
          "internalType": "struct UniversityDegrees.Degree[]",
          "name": "",
          "type": "tuple[]"
        }
      ],
      "stateMutability": "view",
      "type": "function"
    },
    {
      "inputs": [
        {
          "internalType": "string",
          "name": "_ERP",
          "type": "string"
        }
      ],
      "name": "getDegreeByERP",
      "outputs": [
        {
          "components": [
            {
              "internalType": "uint256",
              "name": "degreeId",
              "type": "uint256"
            },
            {
              "internalType": "string",
              "name": "name",
              "type": "string"
            },
            {
              "internalType": "bool",
              "name": "isVerified",
              "type": "bool"
            },
            {
              "internalType": "string",
              "name": "ERP",
              "type": "string"
            }
          ],
          "internalType": "struct UniversityDegrees.Degree",
          "name": "",
          "type": "tuple"
        }
      ],
      "stateMutability": "view",
      "type": "function"
    },
    {
      "inputs": [],
      "name": "totalDegrees",
      "outputs": [
        {
          "internalType": "uint256",
          "name": "",
          "type": "uint256"
        }
      ],
      "stateMutability": "view",
      "type": "function"
    }
  ],
  "bytecode": "0x608060405234801561001057600080fd5b506112f1806100206000396000f3fe608060405234801561001057600080fd5b50600436106100575760003560e01c806317e332521461005c57806335eee2fb1461008c57806381f1c3bc146100aa578063d6db91a4146100dd578063d8a9fc57146100fb575b600080fd5b6100766004803603810190610071919061091b565b610117565b6040516100839190610a81565b60405180910390f35b610094610328565b6040516100a19190610ab2565b60405180910390f35b6100c460048036038101906100bf9190610af9565b61032e565b6040516100d49493929190610b7f565b60405180910390f35b6100e561047b565b6040516100f29190610cfe565b60405180910390f35b61011560048036038101906101109190610d20565b610692565b005b61011f610797565b6000600190505b60015481116102e75782805190602001206000808381526020019081526020016000206003016040516101599190610e9b565b6040518091039020036102d4576000808281526020019081526020016000206040518060800160405290816000820154815260200160018201805461019d90610dc7565b80601f01602080910402602001604051908101604052809291908181526020018280546101c990610dc7565b80156102165780601f106101eb57610100808354040283529160200191610216565b820191906000526020600020905b8154815290600101906020018083116101f957829003601f168201915b505050505081526020016002820160009054906101000a900460ff1615151515815260200160038201805461024a90610dc7565b80601f016020809104026020016040519081016040528092919081815260200182805461027690610dc7565b80156102c35780601f10610298576101008083540402835291602001916102c3565b820191906000526020600020905b8154815290600101906020018083116102a657829003601f168201915b505050505081525050915050610323565b80806102df90610ee1565b915050610126565b506040517f08c379a000000000000000000000000000000000000000000000000000000000815260040161031a90610f75565b60405180910390fd5b919050565b60015481565b600060205280600052604060002060009150905080600001549080600101805461035790610dc7565b80601f016020809104026020016040519081016040528092919081815260200182805461038390610dc7565b80156103d05780601f106103a5576101008083540402835291602001916103d0565b820191906000526020600020905b8154815290600101906020018083116103b357829003601f168201915b5050505050908060020160009054906101000a900460ff16908060030180546103f890610dc7565b80601f016020809104026020016040519081016040528092919081815260200182805461042490610dc7565b80156104715780601f1061044657610100808354040283529160200191610471565b820191906000526020600020905b81548152906001019060200180831161045457829003601f168201915b5050505050905084565b6060600060015467ffffffffffffffff81111561049b5761049a6107f0565b5b6040519080825280602002602001820160405280156104d457816020015b6104c1610797565b8152602001906001900390816104b95790505b5090506000600190505b600154811161068a576000808281526020019081526020016000206040518060800160405290816000820154815260200160018201805461051e90610dc7565b80601f016020809104026020016040519081016040528092919081815260200182805461054a90610dc7565b80156105975780601f1061056c57610100808354040283529160200191610597565b820191906000526020600020905b81548152906001019060200180831161057a57829003601f168201915b505050505081526020016002820160009054906101000a900460ff161515151581526020016003820180546105cb90610dc7565b80601f01602080910402602001604051908101604052809291908181526020018280546105f790610dc7565b80156106445780601f1061061957610100808354040283529160200191610644565b820191906000526020600020905b81548152906001019060200180831161062757829003601f168201915b5050505050815250508260018361065b9190610f95565b8151811061066c5761066b610fc9565b5b6020026020010181905250808061068290610ee1565b9150506104de565b508091505090565b600160008154809291906106a590610ee1565b91905055506040518060800160405280600154815260200183815260200160011515815260200182815250600080600154815260200190815260200160002060008201518160000155602082015181600101908161070391906111a4565b5060408201518160020160006101000a81548160ff021916908315150217905550606082015181600301908161073991906111a4565b509050503373ffffffffffffffffffffffffffffffffffffffff166001547f2c4e0ff8926485970ab99e5b31f2b12f9c2d10b39df01ccf3f728a0c566083728484600160405161078b93929190611276565b60405180910390a35050565b60405180608001604052806000815260200160608152602001600015158152602001606081525090565b6000604051905090565b600080fd5b600080fd5b600080fd5b600080fd5b6000601f19601f8301169050919050565b7f4e487b7100000000000000000000000000000000000000000000000000000000600052604160045260246000fd5b610828826107df565b810181811067ffffffffffffffff82111715610847576108466107f0565b5b80604052505050565b600061085a6107c1565b9050610866828261081f565b919050565b600067ffffffffffffffff821115610886576108856107f0565b5b61088f826107df565b9050602081019050919050565b82818337600083830152505050565b60006108be6108b98461086b565b610850565b9050828152602081018484840111156108da576108d96107da565b5b6108e584828561089c565b509392505050565b600082601f830112610902576109016107d5565b5b81356109128482602086016108ab565b91505092915050565b600060208284031215610931576109306107cb565b5b600082013567ffffffffffffffff81111561094f5761094e6107d0565b5b61095b848285016108ed565b91505092915050565b6000819050919050565b61097781610964565b82525050565b600081519050919050565b600082825260208201905092915050565b60005b838110156109b757808201518184015260208101905061099c565b60008484015250505050565b60006109ce8261097d565b6109d88185610988565b93506109e8818560208601610999565b6109f1816107df565b840191505092915050565b60008115159050919050565b610a11816109fc565b82525050565b6000608083016000830151610a2f600086018261096e565b5060208301518482036020860152610a4782826109c3565b9150506040830151610a5c6040860182610a08565b5060608301518482036060860152610a7482826109c3565b9150508091505092915050565b60006020820190508181036000830152610a9b8184610a17565b905092915050565b610aac81610964565b82525050565b6000602082019050610ac76000830184610aa3565b92915050565b610ad681610964565b8114610ae157600080fd5b50565b600081359050610af381610acd565b92915050565b600060208284031215610b0f57610b0e6107cb565b5b6000610b1d84828501610ae4565b91505092915050565b600082825260208201905092915050565b6000610b428261097d565b610b4c8185610b26565b9350610b5c818560208601610999565b610b65816107df565b840191505092915050565b610b79816109fc565b82525050565b6000608082019050610b946000830187610aa3565b8181036020830152610ba68186610b37565b9050610bb56040830185610b70565b8181036060830152610bc78184610b37565b905095945050505050565b600081519050919050565b600082825260208201905092915050565b6000819050602082019050919050565b6000608083016000830151610c16600086018261096e565b5060208301518482036020860152610c2e82826109c3565b9150506040830151610c436040860182610a08565b5060608301518482036060860152610c5b82826109c3565b9150508091505092915050565b6000610c748383610bfe565b905092915050565b6000602082019050919050565b6000610c9482610bd2565b610c9e8185610bdd565b935083602082028501610cb085610bee565b8060005b85811015610cec5784840389528151610ccd8582610c68565b9450610cd883610c7c565b925060208a01995050600181019050610cb4565b50829750879550505050505092915050565b60006020820190508181036000830152610d188184610c89565b905092915050565b60008060408385031215610d3757610d366107cb565b5b600083013567ffffffffffffffff811115610d5557610d546107d0565b5b610d61858286016108ed565b925050602083013567ffffffffffffffff811115610d8257610d816107d0565b5b610d8e858286016108ed565b9150509250929050565b7f4e487b7100000000000000000000000000000000000000000000000000000000600052602260045260246000fd5b60006002820490506001821680610ddf57607f821691505b602082108103610df257610df1610d98565b5b50919050565b600081905092915050565b60008190508160005260206000209050919050565b60008154610e2581610dc7565b610e2f8186610df8565b94506001821660008114610e4a5760018114610e5f57610e92565b60ff1983168652811515820286019350610e92565b610e6885610e03565b60005b83811015610e8a57815481890152600182019150602081019050610e6b565b838801955050505b50505092915050565b6000610ea78284610e18565b915081905092915050565b7f4e487b7100000000000000000000000000000000000000000000000000000000600052601160045260246000fd5b6000610eec82610964565b91507fffffffffffffffffffffffffffffffffffffffffffffffffffffffffffffffff8203610f1e57610f1d610eb2565b5b600182019050919050565b7f446567726565206e6f7420666f756e6400000000000000000000000000000000600082015250565b6000610f5f601083610b26565b9150610f6a82610f29565b602082019050919050565b60006020820190508181036000830152610f8e81610f52565b9050919050565b6000610fa082610964565b9150610fab83610964565b9250828203905081811115610fc357610fc2610eb2565b5b92915050565b7f4e487b7100000000000000000000000000000000000000000000000000000000600052603260045260246000fd5b60008190508160005260206000209050919050565b60006020601f8301049050919050565b600082821b905092915050565b60006008830261105a7fffffffffffffffffffffffffffffffffffffffffffffffffffffffffffffffff8261101d565b611064868361101d565b95508019841693508086168417925050509392505050565b6000819050919050565b60006110a161109c61109784610964565b61107c565b610964565b9050919050565b6000819050919050565b6110bb83611086565b6110cf6110c7826110a8565b84845461102a565b825550505050565b600090565b6110e46110d7565b6110ef8184846110b2565b505050565b5b81811015611113576111086000826110dc565b6001810190506110f5565b5050565b601f8211156111585761112981610ff8565b6111328461100d565b81016020851015611141578190505b61115561114d8561100d565b8301826110f4565b50505b505050565b600082821c905092915050565b600061117b6000198460080261115d565b1980831691505092915050565b6000611194838361116a565b9150826002028217905092915050565b6111ad8261097d565b67ffffffffffffffff8111156111c6576111c56107f0565b5b6111d08254610dc7565b6111db828285611117565b600060209050601f83116001811461120e57600084156111fc578287015190505b6112068582611188565b86555061126e565b601f19841661121c86610ff8565b60005b828110156112445784890151825560018201915060208501945060208101905061121f565b86831015611261578489015161125d601f89168261116a565b8355505b6001600288020188555050505b505050505050565b600060608201905081810360008301526112908186610b37565b905081810360208301526112a48185610b37565b90506112b36040830184610b70565b94935050505056fea264697066735822122008455c20c23d2a52b220647dbee2e5706c005a253bd6de5ea7f115b93b4639b864736f6c63430008120033",
  "linkReferences": {},
  "deployedLinkReferences": {}
}